:020000040000FA
:2000000000500020AD0F0000A50F00008D0F0000A90F0000A90F0000A90F0000000000003C
:20002000000000000000000000000000A90F0000A90F000000000000A90F0000A90F0000E0
:2000400041350000A90F000009800000A90F0000E52B00004D300000A90F0000A90F000034
:20006000A90F000031800000A90F0000A90F0000A90F0000A90F0000A90F0000A90F0000C7
:20008000A90F0000A90F0000A90F0000A90F0000A90F0000A90F0000A90F0000A90F0000A0
:2000A000A90F0000A90F0000A90F0000A90F0000A90F0000A90F0000A90F0000A90F000080
:2000C000A90F000079450000294B1B689B0702D44FF000407047F0B5452183B0002002F0B5
:2000E000E9FB0DF106010222012007F01FFA38B901A8022107F044FA4FF0004003B0F0BDF1
:200100000DF106010222002007F010FA0028EFD0BDF806301C0A44EA0324A4B2200BADF822
:20012000044009F08BFA08F03DFE0646C4F30B000F4609F093FA0CA3D3E9002304460D46B6
:200140003046394609F0F4FA02460B462046294609F0EEFA09F09CFD064909F0F7FE0AF0AB
:2001600045F803B0F0BD00BF7B14AE47E17A843F140700200000C84208B51F4B1B68032B64
:2001800033D1431E012B30D81C4A1D4B012812881B8812D0184609F051FA0022194B09F08F
:2001A000C7FA0022184B09F0C3FA09F071FD174909F0CCFE0AF01AF808BD104609F03EFA61
:2001C0000022104B09F0B4FA09A3D3E9002309F0AFFA00220E4B09F0F3F809F059FD0B49CC
:2001E00009F0B4FE0AF002F808BD4FF0004008BD0000000000A064401C070020E2160020B8
:20020000E01600200000F03E000059400000C84200004440000000002DE9F041624B1B68FC
:20022000F3B10023614C10F0380806462360A38040D1420714D002F047FC5D4D6FF009078C
:20024000286005E002F040FC2B68FB1AC34203D501F0DEFD0028F5D0564B1B78DB0704D4D7
:200260004FF000484046BDE8F0816821012002F021FB06224D49432007F058F905460028C7
:2002800066D0002125786278A37865702270E5782279E37063790846A5706271237102F02B
:2002A00009FB042E40D0022E5DD0012EDAD1B4F904003BE002F008FC3D4D6FF0090728607E
:2002C00005E002F001FC2B68FB1AC34203D501F09FFD0028F5D0374B1B78D907C0D5682138
:2002E000012002F0E7FA314906223B2007F01EF900210546084602F0DDFA002D49D022789C
:200300006378A078E1786270237022796379202EE070A1706271237128D0102E33D0082E30
:2003200034D04FF000089DE7B4F9000009F096F91BA3D3E9002309F025FB09F0A9FC1E49FE
:2003400009F004FE09F052FF80464046BDE8F0810621164807F014F92946284602F0AAFAFA
:200360004FF000487EE7B4F90200DFE7B4F9000001F078FC104909F0E9FD09F037FF8046DD
:200380004046BDE8F081B4F90200F1E7B4F90400EEE70621054807F0F3F861E7AFF30080F4
:2003A00000000000006060406C0700204407002014170020EE1600200000C84200000000C6
:2003C0002DE9F04F23F0004555EA020493B00DD0794E21F00044B4420F4682460FDD04F1FB
:2003E000404404F5801454EA0A035BD10023734CCDE90034DDE9000113B0BDE8F08F98461D
:2004000094464ED0B542EADC6B4EB54266D0002F8B468146CDE9022364DB0026BCF1000F7E
:200420000ED1654B9D4246D0644B9D4200F09780B8F1804F00F0B280614B984500F0D2833B
:200440004846594608F012FFCDE90001BAF1000F06D1002C60D0594B27F040429A425BD07E
:20046000FF0F013F56EA070300F08280554B9D4240F3B08003F104739D4240F34E84524B24
:200480009C4240F38280B8F1000F40F3828048A3D3E900231046194609F04AF9CDE90001EA
:2004A000A8E728B1494813B0BDE8F04F08F0EABEA542F7DCA8E704F1404303F5801353EA73
:2004C0000A0393D0404B9C4240F39683B8F1000F5FDBDDE90234CDE900348BE7BCF1000FF1
:2004E00095D07CE73A4B9D4237DCA3F154739D4293DD2B15A3F2FF33142B40F3ED83C3F176
:2005000034032CFA03F202FA03F3634585D102F00102C2F1020681E7B8F1000F07DADDE922
:2005200000230020254909F02DFACDE90001002FBFF660AF04F1404404F5801454EA0603F3
:2005400000F04984012E7FF455AFDDE90045224605F10043CDE900234CE702265EE7B8F16A
:20056000000FC0F2558348465946CDE9000141E74A4648465B46594608F022FF02460B46C6
:2005800009F000FACDE9000134E7B8F1000FFFF67EAF00230024CDE900342BE74A4648465B
:2005A0005B46594609F0C4F8CDE9000122E700BF9C7500883CE4377E0000F07F0000F03FBB
:2005C0000000E03F0000E041FFFFEF3F04AA0000FFFF3F43B4F5801F80F29C83DDE90001E1
:2005E0000022D14B09F0A4F86FF0340C0C46CDE900012315CD4AC4F31304A3F2FF3344F068
:200600007F5503EB0C0194420D9145F4401540F37383C74B9C4240F30084002300240022D0
:20062000CDE90A34CDE910340024C24B0131CDE906230D91A5F58015DDE906ABDDE900017F
:2006400052465B462946804608F0BAFE5246CDE908015B4640462946CDE906AB08F0B2FE80
:2006600002460B460020B34909F08CF90A4601461346CDE90E120246DDE9080109F058F821
:200680000A4683469446002301460020CDE900BC00936B1043F0005303F50023CDE90412F0
:2006A000DDE900AB1919A94604460D4602460B465046594609F03CF802460B46DDE90801A8
:2006C00008F07EFEDDE90623CDE908012046294608F076FE02460B464046494608F070FEA3
:2006E00052465B4609F024F802460B46DDE9080108F066FEDDE90E2309F01AF8DDE90445D7
:20070000CDE9060122462B462046294609F010F873A3D3E9002304460D4609F009F872A3CC
:20072000D3E9002308F04EFE22462B4609F000F86FA3D3E9002308F045FE22462B4608F0CF
:20074000F7FF6DA3D3E9002308F03CFE22462B4608F0EEFF6AA3D3E9002308F033FE224647
:200760002B4608F0E5FF68A3D3E9002308F02AFE2246804689462B462046294608F0D8FF10
:2007800002460B464046494608F0D2FF04460D46DDE9040152465B4608F014FEDDE9062348
:2007A00008F0C6FF22462B4608F00CFE5246804689465B465046594608F0BAFF00225E4B22
:2007C000CDE9080108F0FEFD42464B4608F0FAFD00980D4604462B4622465046594608F024
:2007E000A7FF002282468B46534B2046294608F0E7FDDDE9082308F0E3FD02460B46404661
:20080000494608F0DDFDDDE9042308F091FF224680468946DDE906012B4608F089FF0246FF
:200820000B464046494608F0CDFD8046894602460B465046594608F0C5FD35A3D3E90023BC
:2008400000980D46044608F073FF5246CDE904015B462046294608F0B3FD02460B46404669
:20086000494608F0ADFD2CA3D3E9002308F060FF2BA3D3E90023804689462046294608F033
:2008800057FF02460B464046494608F09BFDDDE9102308F097FD80460D98894608F0DEFE31
:2008A00082468B46DDE9040142464B4608F08AFDDDE90A2308F086FD52465B4608F082FD1E
:2008C000009852465B4604460D4608F079FDDDE90A2308F075FDDDE904232FE0AFF30080C1
:2008E000EF4E454A287ECA3F65DBC9934A86CD3F01411DA96074D13F4D268F515555D53F08
:20090000FFAB6FDBB66DDB3F033333333333E33F000000E009C7EE3FFD033ADC09C7EE3F92
:20092000F5015B14E02F3EBE000040438E98030079B60B000000F03F0000084008F040FDB5
:200940000B4602464946404608F03AFD0022013E56EA070314BFDA4BDA4B8B46CDE9042344
:20096000DDE9021200230E461746CDE900670093DDE9006782463B4608461146324608F08E
:200980001FFD22462B4608F0D3FEDDE90223804689465046594608F0CBFE02460B46404604
:2009A000494608F00FFD8046894632463B4620462946CDE9028908F0BBFE0B46024606466A
:2009C0000F464046494608F0FDFCBF4B044699420D468A4640F3268101F13F4303F5E00341
:2009E000034340F0FE81A2A3D3E90023DDE9020108F0E8FC3246804689463B4620462946D6
:200A000008F0DEFC02460B464046494609F020F9002840F0E681A8464FF4801300204FEA68
:200A20002852A2F2FE3213415344C3F30A52A74DA2F2FF321541C3F3130423EA0501C2F1D9
:200A4000140B44F48014BAF1000F02460B4644FA0BFB30463946B8BFCBF1000B08F0B0FC3D
:200A600006460F46DDE9020132463B4608F0AAFC0D464FEA0B5A00247FA3D3E900232046F9
:200A8000294608F055FE3246804689463B462046294608F095FC02460B46DDE9020108F056
:200AA0008FFC77A3D3E9002308F042FE76A3D3E9002306460F462046294608F039FE024695
:200AC0000B463046394608F07DFC06460F4602460B464046494608F075FC42464B46044644
:200AE0000D4608F06DFC02460B463046394608F067FC2246804689462B462046294608F01E
:200B000017FE63A3D3E9002306460F4608F010FE61A3D3E9002308F053FC32463B4608F019
:200B200007FE5FA3D3E9002308F04CFC32463B4608F0FEFD5CA3D3E9002308F041FC324618
:200B40003B4608F0F5FD5AA3D3E9002308F03AFC32463B4608F0ECFD02460B4620462946D8
:200B600008F02EFC06460F4602460B462046294608F0DEFD0022CDE900014FF08043304620
:200B8000394608F01DFC02460B46DDE9000108F0F9FE424606460F464B462046294608F0EF
:200BA000C7FD42464B4608F00DFC02460B463046394608F005FC22462B4608F001FC0246BA
:200BC0000B4600203E4908F0FBFB8A44BAF5801FC0F235815146DDE9042308F0A9FDCDE9D3
:200BE000000107E4002FFFF62BAC4846594613B0BDE8F04F08F078BAB8F1000FBFF6C9AC2E
:200C0000DDE90234009304F100430193FFF7F2BB4A465B4600202A4908F0B4FECDE90001B1
:200C2000FFF7E8BB2A4B21F00048984540F3E980284B0B4403430AD132463B4608F0C0FB45
:200C4000DDE9022308F0FAFF00283FF4E5AE1AA3D3E90023DDE9040108F06AFD16A3D3E98F
:200C6000002308F065FDCDE90001FFF7C3BB00BFFE822B654715973C00000000432EE63F38
:200C8000EF39FAFE422EE63F396CA80C615C20BED0A4BE726937663EF16BD2C541BDBB3ED9
:200CA0002CDE25AF6A56113F93BDBE166CC1663F3E5555555555C53F59F3F8C21F6EA5012C
:200CC0000000F03F0000F0BFFFFF8F40FFFF0F00FFCB904000346F3FBCF1000F40F09A80DA
:200CE000C3F1140345FA03F202FA03F3AB4200F0AA806646FFF798BB002300241A462346F7
:200D0000CDE90A23CDE910230022614B0024CDE9062391E44FF0000C6BE45E4B9C427FF72A
:200D200034AC5B4B9C423FF7AEABDDE900010022574B08F045FB48A3D3E9002304460D4696
:200D400008F0F6FC46A3D3E9002382468B462046294608F0EDFC0022CDE900014E4B2046BA
:200D6000294608F0E5FC02460B463FA1D1E9000108F026FB22462B4608F0DAFC02460B469E
:200D80000020464908F01CFB2246804689462B462046294608F0CCFC02460B4640464946E4
:200DA00008F0C6FC32A3D3E9002308F0C1FC02460B46DDE9000108F003FB02460B4680465B
:200DC00089465046594608F0FDFA00200D46044652465B46B2E5DDE9002310461946FFF7FF
:200DE000CBBB25A3D3E90023DDE9040108F0A0FC21A3D3E9002308F09BFCCDE90001FFF788
:200E0000F9BA264B98453FF707AEDDE900239246934630E60026FFF713BB19A3D3E90023B1
:200E2000CDE90A2318A3D3E90023CDE9102300221B4B4FF48024CDE90623FFF7FDBB5A46B0
:200E400000F032F8C7E602F00102C2F10206FFF7EBBA00BFAFF30080000000604715F73FAD
:200E600044DF5DF80BAE543E555555555555D53FFE822B654715F73F9C7500883CE4377E8D
:200E80000000004003B8E23F06D0CF43EBFD4C3E0000F03FFEFFEF3F0000D03F0000E03F54
:200EA0000000F83F00000000F8B5C1F30A5304460D460E4617460BBB034621F00046334313
:200EC0001BD02F4B002208F033FC2E4B04469F420D4637DB0E46C1F30A53363B40F2FE72E3
:200EE0003B4493421ADC002B11DD26F0FF4626F4E00646EA035520462946F8BD40F2FF727F
:200F00009342EBD102460B4608F05CFAF8BD13F1350F1DDA4CF250339F420CDD14A1D1E96B
:200F2000000122462B4608F03FFA11A3D3E9002308F0FEFBF8BD22460FA1D1E900012B4629
:200F400008F032FA0CA3D3E9002308F0F1FBF8BD26F0FF4626F4E006363346EA0355204694
:200F600029460022084B08F0E3FBF8BDAFF300809C7500883CE4377E59F3F8C21F6EA50139
:200F800000005043B03CFFFF0000903C044B1A68B2F5806F03D01B689B0500D4FEE770473B
:200FA00028ED00E0FEE700BFFEE700BF08B504F0EDFF0F4B0F4A93420CD2181D0332121A5B
:200FC00022F003020C49024451F8040B43F8040B9342F9D109480A494FF000028842B8BFF8
:200FE00040F8042BFADB00F013F9FFF7CFFF08BD000000208505002068AD000088050020A4
:201000005A1700200846134609784278014803F0F9BA00BFDCA80000084613460978427849
:20102000014803F0EFBA00BF98A80000832910B5044628D02388B22B23D0B92B1CD01BB102
:2010400000232380032010BD124A9021124804F033FD124804F058FB114804F0D5FB114B35
:201060001888012813D04FF4A0610F4804F004F9B9232380012010BD0B4804F007F900285C
:20108000F1D1012010BD044804F02CFDD2E7B223238010BD8CA80000200600201806002081
:2010A0002804002018170020E405002070B5054600240B4E15F8011B304603F0A3FA04F07C
:2010C0000F03013423B9012CF4D00A2001F01EFE402CEFD10A20BDE8704001F017BE00BF95
:2010E000F8A700002DE9F0412A4E84B033682A4801330D461746336004F00AFB58B304468C
:2011000001E024683CB32946201D05F0BFFB0028F7D0A379BB422DD0A77105F08FFC1F4C10
:20112000322280460021204609F084FA05F072FC0146204609F0C8FA6B782A783168CDE9F8
:2011400001840097164803F05DFA204604B0BDE8F041FFF7ABBF134804F068FB044698B136
:201160002946201D05F08EFBA77121460A4804F0F7FAD2E76B782A78316800970A4803F0DC
:2011800041FA04B0BDE8F081034804F009FB0446E6E700BF1C06002018060020B0050020DC
:2011A00040A800002804002000A80000F0B5002706463C463D4683B0304600F0E7F9019527
:2011C000019B9C4206DD00BF019B01330193019BA342F8DB304600F0E3F90195019BC4F50E
:2011E000C8749C4206DD00BF019B01330193019BA342F8DB0137B7F5487F06D0B7F5C87F07
:20120000CCBFC7F548743C46D6E703B0F0BD00BF2DE9F0416E4C86B0236801216D485B6811
:2012200098470122236811461B686A48984704F081FD02F09DF902F035F900F0E3FF02F0D8
:201240006DF900F099F9012363496448644A03600B6018461368FFF7A9FF04F06FFD01F0E6
:2012600035FC01F0A5FB04F0A7F901F0FFFC04F0FFF841F2342003F091F801F0B3FE04F0A8
:2012800031FA584801F04AFD4BF2AC720021564803F0B8F9554801F041FD04F0B5FC544C7C
:2012A000544D10F0040F14BF27462F4604F0B4FC01280CBF26462E4604F0A6FC10F0020FA6
:2012C00014BFA046A84604F09FFC10F0080F08BF2C463246434600943946474803F092F967
:2012E0000021464804F0A0F803F0A8FE03F006FF0220FFF75BFF424803F084F9414B424C9C
:20130000186801F00BFD414803F07CF9404B186801F004FD3F4803F075F921683E4803F07C
:2013200071F9E469A04720B1A04701463B4803F069F900270A2001F0E9FC05F0B7FA04A8BF
:201340000821374D039701F021FD364BBDF816209DF816109DF817401A8044EA0124EE6ADF
:201360004AF6CD310220B04721460320B0470B210120B047082204A96B6B0B209847AB6A85
:2013800003A9012098470399274803F03BF9274B214627481C8003F035F90220FFF706FF4D
:2013A0003946244804F040F8234803F0F1FD01F06BFC0120FFF7FAFE04F074F8044601F0C8
:2013C00097FC14F0FF0FF7D101F038FFF4E700BFD801001000400340080009400C4009408C
:2013E0002C2009402CA9000054A900006CA9000024A9000028A9000080A900002005002065
:20140000B4A9000030AC000098AC0000BCA9000074AC0000C4A90000CCA90000D0A900006F
:20142000D8AA000018170020F4A90000DC16002008AA000044040020F0A700002DE9F04134
:2014400004880646772C2FD07E2C26D024B1002303203380BDE8F08103F0DEFF2D4F2E4BC9
:201460002E4D3A6818702C6082B12346A0462C4C04F8038093680021802098472B68013360
:2014800057F823202B60002AF2D1DAB2254B1A70772333800120BDE8F0811F4B1B788B426E
:2014A0001CD00120BDE8F081DFF878801B4D98F800201D4F00233B602B60002AE8D0184C27
:2014C000E256002A18DB2B6898F80020013393422B60F5DB3B68002BECD1D9E70F4D104C0D
:2014E000DFF84080104F2B683A68E15C013201F07F01E1543A60E7E7064A074952F8232016
:201500000978002004F02AF80028ECD17E23012033809FE754040020581700207406002093
:2015200008170020E81600207006002010B40E4B1C78B4B10D4A136898424FF0000304D1DF
:2015400006E052F8041F884202D00133A342F8D107490848CA5C62F07F02CA5410BC04F043
:201560001DB82346F4E700BFE816002054040020081700204404002008B500F01BF8002274
:20158000014B1A7008BD00BFE9160020034A137803431846137000F029B800BFE916002024
:2015A000034A137823EA00031846137000F01EB8E91600200A4B1A6882B9012210B5094C2E
:2015C0001A6023680A20DB6B984723680F20DB6B98474FF40442044B1A6010BD704700BF43
:2015E00078060020B4010010A02002404FF40442084B094908701A60C20744BF4FF4806275
:2016000043F8102C830703D54FF40042034B1A60704700BFA0200240EA160020902002401A
:20162000813801289ABF024B18680020704700BF980600200322024B02481A60FFF776BFED
:201640009806002020AA000010B5044682B07721002001F02FF94CB98DF8074001220DF1FE
:201660000701F42005F070FF02B010BD25238DF80730F3E730B5802885B016D0812803D069
:201680001D4B186805B030BD1B4C20680028F9D029B30120FFF7D8FF18480023184A03210D
:2016A00003F006FD02202060ECE70125124C77210020256001F0FEF81C221249882005F0E1
:2016C00035FFB62304A901F8013D2A46E02005F03BFF0020FFF7B8FF206805B030BD074834
:2016E000019103F0F1FC01990846FFF7ADFF012318462360C6E700BF98060020A4060020F5
:20170000351600007C060020534B1B68032B40F0A080431E012B00F29C8000232DE9F04138
:201720004E4D772104462B601846AB8001F0C2F829460622F72005F0F9FE002800F08180BA
:201740002A794749E8786B79120142EA0032088842EA1312C0EB121303FB03F3B1F90460EE
:201760004000B1F902701B13C0EBD20206FB03F307FB02F29B1303EBE2234FEA630CACF589
:201780007A4C4FEAAC0707FB07F7B1F90820B1F90A6078130CFB02F200FB06F0521002EBEB
:2017A000E0029214C88802F5004200FB02F0C0138B612A7895F801E0AE783AD0B1F90E80F4
:2017C000B1F910500CFB08FCFF124FEA4C0C05FB07CCB1F90C70360946EA0E163F0446EA53
:2017E000023607EBAC071F4D06EB273605FB06F505F1434505F5A005002DB3BFB5FBF0F00B
:201800006D00B5FBF0F04000C20802FB02F5B1F91420B1F9166087086D0B02FB07F206FBD1
:2018200005F5B1F91210521302EB25320A4400EB2210012C03D103EB830080300012BDE8F5
:20184000F0812846062105F09BFE4FF00040BDE8F0814FF000407047980600209C060020A9
:201860007C060020CBF3FFFF813801289ABF024B18680020704700BFCC0600200322024B08
:2018800002481A60FFF752BECC06002040AA000010B504464421002001F00CF8002C0CBF22
:2018A000002410240222044B10461C801946BDE8104005F049BE00BFDE16002010B58028DB
:2018C00082B016D0812803D01D4B186802B010BD1B4C20680028F9D029B30120FFF7D8FF63
:2018E00018480023184A242103F0E2FB02202060ECE7164C012023689B6B984723684FF4B8
:2019000080419B690120984723684FF08041DB69012098470020FFF7BBFF01231846084A8F
:20192000136002B010BD0748019103F0CDFB01990846FFF7ADFF012318462360C6E700BF1E
:20194000CC060020D40600207D180000B401001038B5354B1B68032B5AD1820758D003281C
:201960000BD0012805D0022852D1304B1B68184638BD2F4B1B68184638BD2E4D4421044676
:20198000002000F097FF29460222042005F0CEFD00283BD02A88130A43EA02239BB22B80DE
:2019A0005B0433D5244D02222946012005F0BEFD88BB2148042105F0E3FD00202C786B789E
:2019C000A978EA7843EA042442EA012200B3900808F068FA4FF0745108F0B8FA174908F035
:2019E000B5FA08F003FC124B104D1860A00808F059FA4FF0745108F0A9FA104908F0A6FA8C
:201A000008F0F4FB01232860184638BD0A4DD0E74FF00043ABE702222046A91805F086FDFB
:201A20000028CBD1C5E700BFCC060020C4060020D0060020DE160020C806002000007A44E5
:201A4000014B1868704700BF1407002070B506460E4C82B045210020256800F02BFF76B9B0
:201A60004FF4865305F002052560ADF8063002220DF10601012005F067FD02B070BD41F239
:201A8000C2020123ADF806202360F0E71407002000B5452183B0002000F00CFF02220DF173
:201AA0000601012005F042FDBDF90630002B08DB0023084A1021084803F0FAFA03B05DF8EB
:201AC00004FB0648FFF732FD0222054B1A6003B05DF804FB911A0000F406002050AA0000E0
:201AE00014070020802810B50DD0812809D10C4671B90D4803F0E8FA2046FFF7A7FF2046D0
:201B000010BD002010BD0020FFF7A0FF002010BD0120FFF79BFF0023044A1021024803F0D9
:201B2000C7FA012010BD00BFF4060020911A0000813801289ABF024B18680020704700BFD4
:201B40001C070020032138B5124C134A23781160CBB1124D4321002000F0ACFE28460421DE
:201B600000F058FD00212070084600F0A3FE28886988020A42EA0022094D0B0A094843EAAC
:201B800001232A800380012307482370BDE83840FFF7CCBCEB1600201C07002018070020B0
:201BA000E2160020E016002068AA000030B5802883B023D0812803D0234B186803B030BD28
:201BC000214C20680028F9D0002936D01F4D2B785BB14321002000F06DFE002000F0E0FC0A
:201BE00000212870084600F065FE19480023194A032103F05DFA02202060DFE70024164B49
:201C0000164A174D20461C60432114802C8000F051FE0222102302A921F8023D104605F096
:201C200093FC0A4B21461870204600F043FE01231846054A136003B030BD054803F044FAD8
:201C4000012318462360B9E71C070020EB16002020070020451B000018070020E01600207F
:201C6000E216002008B5174B1B78032B28D8DFE803F0151E0C0207F0F1FC00224FF07D535C
:201C800007F056FD08F004F808BD07F0E7FC00220D4B07F04DFD07F0FBFF08BD07F0DEFC25
:201CA00000220A4B07F044FD07F0F2FF08BD07F0D5FC0022064B07F03BFD07F0E9FF08BDBA
:201CC000002008BDEC1600200000303F0000103F0000203F813801289ABF024B18680020B8
:201CE000704700BF6C0700200222024B02481A60FFF71CBC6C07002080AA000010B56821CD
:201D0000012000F0D7FD3F23094C012221466C20237005F019FC4F23214601226B2023705A
:201D200005F012FCBDE810400021084600F0C2BDF0160020802838B50BD0812806D111F0B6
:201D40003F0141D1294B1B68DB0429D4284B186838BD284C072023689B6B984723684FF49D
:201D600000519B690720984723684FF08041DB690720984723680C20DB6B984723684FF489
:201D800040729B6A4FF480610C2098474FF4805400221948194B164904601A60086838BDBD
:201DA000164B1748196003F08FF9FFF7A7FF154A136813F00103FBD14FF480500C4A0E4966
:201DC00013600860106838BD4FF4805001240B4B0D4A074D1960106000230C4A08210848A7
:201DE0002C6003F065F92C60204638BD802002406C070020B4010010A0200240400700207C
:201E00004C0700200428004090200240391E000010B5084C6821012000F04CFD2146012214
:201E20003A2005F083FB0021084600F043FD207810BD00BFEE1600202DE9F041364C23689A
:201E400013F0380F29D1354D03F03F042E7866B9002C3CD12C70FFF751FFBDE8F0410023AD
:201E60002F4A05212F4803F023B9E3B22B70002CF1D02D4FDB43682101203B7000F01AFD6A
:201E8000012229496C2005F05FFB0021084600F011FD264803F056FFDFE7254E3278002AA2
:201EA000D1D00025234F682101203D7000F002FD394601221C2005F047FB07462946284665
:201EC00000F0F8FC2368002FBDD03570BBE76821012000F0EFFC0923134F012239466B2050
:201EE0003B7005F031FB3F23394601226C203B7005F02AFB01220F491C202E7005F024FB58
:201F0000394601223A2005F011FB3146304600F0D1FCE3B22B70ADE740070020EF160020CA
:201F2000E91C00004C070020F016002080380100EC160020ED1600208138012808D808B586
:201F4000044B00201B685B689847C0F3804008BD00207047B40100108138012808D808B59A
:201F6000044B04201B685B689847C0F3804008BD00207047B401001028B1012806BF054BDE
:201F8000D86800207047044B1868C04300F00100704700BF70070020C020024008B100205F
:201FA0007047034B18686FEA101000F001007047C0200240802870B514460AD0812807D1D7
:201FC000E1B9BDE87040184B10461B685B6B184770BD0123144D154993402A680B60936BD3
:201FE000204698472B6820460021114A1B689847E0B21049BDE8704001F07ABA01230A4DE5
:202000000A4993402A680B60936B204698472B6820461B68064A002198472B682046BDE8F0
:2020200070401B6B184700BFB4010010E0200240004007205120000008B50022FFF7BAFFDF
:20204000012008BD08B50422FFF7B4FF012008BD38B510B1042814D038BD134C204603F0BD
:20206000E1FA0028F8D00421204603F0D3FA0F4B1D6815F001050CD100F0E8FCC4E90205FB
:2020800038BD4FF08052BDE838404FF4804101F007B800F0DBFCA368C31AE3600448BDE886
:2020A0003840FFF743BA00BF70070020C020024098AA0000024B1868C0F3C000704700BF45
:2020C000C02002408138012808D808B5044B03201B685B689847C0F3804008BD00207047B9
:2020E000B4010010802810B509D0812805D1134B1B68F1B95B6B03209847012010BD0F4CBA
:20210000032023685B6B984708210D4B0D4A1B681160DB694FF4A060984723680A4A1B68D8
:202120000021032098470949032001F0E1F9012010BD1B6B03209847012010BDB401001013
:20214000B8010010E0200240002003205121000008B5074803F066FA00B908BD0548FFF79F
:20216000E5F9BDE808404021014803F053BA00BF80070020C0AA000010B5064C0420236854
:202180005B699847236804205B6B98470128F9D110BD00BFB8010010FFF7EEBF032801D061
:2021A00000F012B908B505F0CBFA104B00219B68812098470E4B00219B68812098470D4B99
:2021C00000219B68812098470B4B00219B68812098470A4B00219B68812098474FF4805253
:2021E000074B1A60BDE8084000F0EEB820AA000050AA000040AA000068AA000080AA0000A6
:20220000A020024070B503F095FD0646FFF7B4FF3A4B4FF4A0601B68DB6998470121384B0A
:20222000384A196013689B07FCD54FF40055364C00F09CF805F07EFA05F072FA334801F0DD
:2022400025F9236819209B6B9847236829469B6919209847236818209B6B984723682946FF
:202260009B6918209847236817209B6B9847236829469B691720984723681B209B6B9847DD
:20228000236829469B691B20984723681E209B6B984723684FF480419B691E20984723683D
:2022A0000D20DB6B98471A4A2368156000214FF480729B6A0D209847236802209B6B98476F
:2022C000236829469B690220984723680B209B6B9847236829469B690B20984723681D2094
:2022E0009B6B9847236829469B691D20984706B170BDBDE8704003F021BD00BFB80100104D
:202300002820086028200840B401001078040020A020024010B5094B09481B685B6898478B
:2023200010F00C0F044605D00422064B02201A6003F008FDB4FA84F0400910BDAC01001063
:20234000002000400428004008B5064B02201B685B6B9847012809BF034B0020186800F08A
:20236000010008BDB80100106020084070B5104D02202B685B6998472B6802205B6B9847D2
:2023800001280446F8D12B684FF44070DB699847084B094A1C6013689B07FCD5BDE87040F3
:2023A000064B01221B6806491B680648184700BFB80100102820086028200840AC01001022
:2023C000006CDC0200200040FF22214B10B51A70FFF7BAFF20B100231E491F4A0B60136026
:2023E0001E4B4FF440701B681B6A984701211C4B1C4A196013689B07FCD51B4C082023682A
:202400009B6B984723684FF400519B6908209847236809209B6B984723684FF400519B69F1
:2024200009209847236805209B6B984723684FF480419B6905209847236806209B6B9847D2
:2024400023684FF48041BDE810409B6906201847820500200428004010040542B801001038
:202460002820086028200840B40100102DE9F84F0746474B47481B78474A5B0003603B78F7
:202480000E46136000F020FB00F5CC54434D193404E000F019FB001B002854DA2B685B062B
:2024A000F7D4032302202B6003F04CFC00F00CFB00F5CC54394D193404E000F005FB001B75
:2024C000002840DA2B68D807F7D4FFF723FF012E034659D9B8B30124A346DFF8BCA0DFF838
:2024E000BC8006F1FF39631E3B4413F8012FA145CAF800202BD80134B442F6D30523274CDC
:202500000220236003F01EFC00F0DEFA00F5CC55193504E000F0D8FA401B002813DA23683C
:20252000DA07F7D4FFF7F6FE044600F0CDFA1B4E00F5CC55193533685B0605D500F0C4FAB3
:20254000401B0028F7DB00242046BDE8F88F0220C8F800B003F0F6FB00F0B6FA00F5CC5544
:20256000193504E000F0B0FA401B0028EBDAD8F80030D907F6D4FFF7CDFE0134B442034668
:2025800002D20028AFD1DEE7002BDCD0B6E700BFF11600200028004008280040042800405C
:2025A00038B5184B18491B78184A5B000B60106000F08AFA00F5CC54154D193404E000F033
:2025C00083FA001B00281ADA2B685A06F7D4072302202B6003F0B6FB00F076FA00F5CC5499
:2025E0000B4D193404E000F06FFA001B002806DA2B68DB07F7D4BDE83840FFF78BBE00201A
:2026000038BD00BFF11600200028004008280040042800402DE9F84F394B3A4A1B788346DA
:202620005B0043F0010313600F4600F04DFA00F5CC55354E193504E000F046FA401B00288B
:2026400022DA346814F04004F6D10B230220336003F078FB41F699182B4D07F1FF3A5FFAA0
:2026600084F9D1451EDA00F02FFA00EB080604E000F02AFA801B002806DA2B68D907F7D4E4
:20268000FFF748FE013418B900242046BDE8F88F09231E4A022012680BF809202B6003F068
:2026A00051FBDCE70523184C0220236003F04AFB00F00AFA00F5CC55193504E000F004FA78
:2026C000401B0028E0DA2368DA07F7D4FFF722FE04460028D8D00D4B5F441B680A4E07F881
:2026E000013C00F0F1F900F5CC55193533685B06CBD500F0E9F9401B0028F7DBC4E700BF32
:20270000F11600200028004004280040082800402DE9F04F0546634F634E38780C46400009
:2027200030602878614983B008609046994600F0CBF900F5CC56DFF878A1193604E000F091
:20274000C3F9801B002847DADAF800305A06F6D403230220CAF8003003F0F4FA00F0B4F9F5
:2027600000F5CC56DFF848A1193604E000F0ACF9801B002830DADAF80030DB07F6D4FFF749
:20278000C9FD012C03462CD930B34FF0010B2B19DFF818A1464E01935D4415F8013B0220C2
:2027A000CAF80030C6F800B003F0CCFA00F08CF900F5CC54193404E000F086F9001B002893
:2027C0000ADA3368D807F7D4FFF7A4FD019A0346954206D00028E0D10024204603B0BDE8ED
:2027E000F08F002BF8D00B223B782F495B00304C43F001030B600220226003F0A3FA41F62B
:202800009917A8F10206DFF8A4B04E4408F1FF3A564519D000F058F9C51904E000F054F9B4
:20282000401B0028D8DA2368D907F7D4FFF772FD0028D1D00923DBF8002002200AF8012F8C
:20284000236003F07FFAE3E70523194C0220236003F078FA00F038F900F5CC55193504E0BF
:2028600000F032F9401B0028B6DA2368DA07F7D4FFF750FD04460028AED00C4BC8441B68DA
:202880000B4E08F8013C00F01FF900F5CC55193533685B06A1D500F017F9401B0028F7DB6F
:2028A0009AE700BFF11600200028004008280040042800402E4B10B504461970FFF744FD25
:2028C000002830D02B4B1A78A24232D000222A482A491C7002600A601B78002B2AD1284C56
:2028E0004FF4C041236805209B69984723684FF4C0419B690620984723680622DB6C052109
:2029000020489847236808209B6B9847236809209B6B9847BDE810401B4B01221B681B49DA
:202920001B6818481847FFF721FD124B1A78A242CCD110BD012BEDD1114C4FF4C0412368EE
:2029400008209B69984723684FF4C0419B6909209847236809220821DB6C0A4898472368AF
:2029600005209B6B9847236806209B6B9847D1E7F11600208205002004280040100405426A
:20298000B401001000200040AC010010006CDC0210B5064C042023685B69984723680420F3
:2029A0005B6B98470128F9D110BD00BFB80100100020002170B51B4A1B4BC2E900011B68CA
:2029C00004205B6B9847012801D0FFF7E1FF164B00201B68DB6998470121144B144A1960DF
:2029E00013689B07FCD5134A13491368096823F4807323F00103114C13600B682046104921
:202A000098470423312640F22120012223600D4D0D4903F1864303F510132E6008601A6048
:202A200070BD00BF88050020B801001028200860282008400C000140C8010010000001408D
:202A4000002100043C0001400800014010B40949094A0B68146808688342FAD1DA01002335
:202A6000064902EB5462C1E9002310BCD1E90001704700BF082009400C2009408805002007
:202A800010B50B490B4A0B68146808688342FAD1DA010023084902EB5462C1E9002302F028
:202AA000FBFB00B910BDBDE8104002F0DFBB00BF082009400C20094088050020704700BF51
:202AC0000146012000F052B803F08CB82DE9F04103F030F90124002580464FF480314FF4B3
:202AE00080701A4E1A4B1B4F32683D601C60186019601368284623219847336820461B687B
:202B000024219847336825211B6802209847124A1249136843F4E02313600D6003F062F893
:202B20000F4B1049104A1B6800F50070086014603C601B6914209847B8F1000F01D0BDE863
:202B4000F081BDE8F04103F0F9B800BF840100100420094000002443002009400820094088
:202B6000B00100101C200940A0022443431E012B10B419D9042801D010BC704700231A46C0
:202B800010F004001CBF0E4C216013B101210D4B196012B101220C4B1A600028ECD0012206
:202BA0000A4B1A6010BC7047012803BF084A03461160002310F00202E2D0064C2160DFE75A
:202BC0002020094080022443A0022443C0022443182009401C200940014B1868704700BF09
:202BE0008807002008B5FFF76FFF184B1860FFF747FF174B1B686BB9164B1B68E3B9164B04
:202C00001B6833B100204FF480321449144B08601A6008BD4FF48072114B1A6002F0E2FFF7
:202C200000F205200F4B20F4FF7020F001001860084B1B68002BE2D0002001220A49084B7B
:202C400008601A6002F0D2FCD9E700BF88070020A000244380002443C0002443C002244366
:202C6000042009401C20094080022443012203490348044B08601A60704700BF00000840D0
:202C8000FFFF0F00000C084038B503F053F8124AB0FA80F01368012B0BD001230F4C104DD4
:202CA0001049114A400925600B601360C3070FD438BD0E4C09490A4D146040090D60094C90
:202CC000094940F0020023600B601360C307EFD5BDE8384003F032B8000C084000000840EB
:202CE000FFFF0F000C0008400401004351E5CC1A012203490348044B08601A60704700BFAE
:202D000000000840FFFF0F000C00084010B50446C0B200F07BF9204610BD00BF70B50646C2
:202D20000024451E04E015F8010F00F06FF90134304607F027FDA042F5D80A2000F066F9C5
:202D400000F078F90128FBD0204670BDF8B50646B0B10078B0B1B9B101317518741C04E0BB
:202D600014F8010B30B1AC4204D000F04FF9A71B002CF5D100F05EF90128FBD03846F8BD3E
:202D80000746F7E70746F5E70F46F3E710B40B4B0B4C1A780133FF2A0DD1A342F9D1094A70
:202DA00039B11144013801390B78914200F8013FF9D110BC7047014AF2E700BFC8FF0100DB
:202DC000D0FF0100F012005038B50C4D02202B685B6998472B6802205B6B98470128044666
:202DE000F8D12B684FF40070DB699847044B054A1C6013689B07FCD538BD00BFB80100101C
:202E000028200860282008402DE9F04340F2F275DFF8DC8083B0FFF7D7FFD8F800302A4EE6
:202E2000DB682A4898473368294C5B69152098472368DFF8C090274F23F4FE63D9F8002085
:202E400023F0020323603D60D36B1D2098474FF0FF334FF000502049D9F80020086000938B
:202E6000D2F840901C211D221848C847D8F800206023D2F8048019494FF4E1321348C047F2
:202E8000142140F2011340F2013C154A154811600268154942F0100202600868134A0028B8
:202EA00018BF634613603D600B6853B115202368326843F050032360136903B0BDE8F043A1
:202EC000184703B0BDE8F083B001001000100040381000404410004090200240006CDC025F
:202EE000341000402C1000408C07002030100040D0010010B401001008B5064B02201B6846
:202F00005B6B9847012809BF034B0020186800F0010008BDB80100106C20084038B50446A3
:202F2000FFF7EAFF18B1254A13681907FCD4032C03D0234B1B6803B138BDFFF7DDFFA0B150
:202F4000204B21481B68DB689847204B15201B685B69984740F2F2701D4A1E49136823F43E
:202F6000FE6323F00203136008601B4D4FF400702B681B6A9847032C09D12B684FF400709C
:202F80009B6A98472B684FF400701B6B98470121124B134A196013689B07FCD51D2000F032
:202FA00091FA1C2000F08EFA4FF0FF3000F08AFABDE838404FF0FF3000F084BA18100040CF
:202FC0008C070020D001001000100040B00100103810004044100040B801001028200860B7
:202FE0002820084010B502F0A5FE0446054800F04DFA0022044B1A6004B110BDBDE81040B7
:2030000002F09CBE8C0400208C07002010B50446FFF772FF08B9FFF7F7FE044B2146BDE884
:2030200010401B680248DB69184700BFD00100100010004008B5FFF75FFF18B1024B186839
:20304000C0F3C00008BD00BF1810004070B5FFF7BBFE40F2F2710C4B0C4A1B68116013F004
:20306000500F0DD00A4C0B4E0B4D06E0336828461B699847094B1B681BB92368DB06F5D5DA
:2030800070BDC0B29847EFE7401000404410004018100040D0010010001000408C0700206C
:2030A0002DE9F0474023002742F0005282B042EA0105CDE90073064602F03CFE01204FF44C
:2030C00080714FF48032434B3C461F60424B434F186019601A603B6820463F211B680134D0
:2030E0009847042CF7D100243C4F3B6820463F219B6801349847032CF7D1394B1B68FFF7D6
:20310000F7FD384802F004FB044630B1A3680BB1032098472468002CF8D1731C0AD000214B
:20312000314B324A43EA86031960136830462A461B689847002401272D4EDFF8E4903368F8
:20314000C9F800409B6907209847684604F046FC00F086FA00F034FA26482749036832680F
:2031600023F0030303600B68244D23F00F030B6093693820984738462C6004F04FFCDFF80C
:20318000A4A01F481F4A2049204B2C60DFF85080CAF80040076014601D4A0C60C9F8004063
:2031A0001C60D8F800301B491368096823F0030313604B68184803219847184A33682C6018
:2031C000CAF8004017609B6BD8F80020984702B0BDE8F0870000244304200940840100106A
:2031E0002C20094090070020001A4442B4010010B801001000100940081009404010094002
:203200008801044340012243440122430800094024220840D80100100040034018100940D2
:203220000C40094020042243034A136823F00403136030BF704700BF10ED00E070B502F0C2
:2032400079FD02F081F918B1BDE8704002F076BD7F4802F05DFA0225044648B1636823B130
:203260009847854228BF0546EDB22468002CF5D1FFF72AFC774B06461B6843B1764B1B6874
:203280001B1A022B38D4A3F28F23002B3DDB02F003F8F8B102F008F80446FFF7D7FB241A5E
:2032A000002CD1DDFFF798FC00EB4420831BA3F28F23002B31DA013D012DC5D8831B082B66
:2032C00000F1B58006F580310B1A11EA230138BF014604E0012D40F0AD8006F5803102205D
:2032E000FFF744FC5D4A136823F00403136030BFBDE8704002F022BD002D00F0A38001F0A3
:20330000CBFF0028A0D00025C4E7022DBFD101F0C3FF0028E1D00125BCE7012DCED0022D6C
:2033200092D101462846FFF721FC494802F0F0F90446002870D00625A3680BB10220984751
:203340002369246825EA0305002CF5D1FFF7D0FC6B0764D425B1424B28461B689B699847A9
:2033600000F07EF9002004F059FB3E493E4A0B683B4823F003030B601368016843F00F03CC
:2033800013608B69392098470023384A38491360184613600B6003F0CDF8062D43D0354C3A
:2033A000354D364E2B682368326823F0030323605368032132489847294B1B689B6B98479F
:2033C0002B6803F0D3F900212E4A336811602C485B6801219847012123682B4A43F0030363
:2033E000236011602B6803F0F3F904F0E3FAFFF747FBFFF77DFC164802F08AF9044628B1F9
:20340000E36803B198472468002CF9D102F096FCBDE8704002F092BCFFF76AFC062500228A
:20342000194B1A6097E7022002F026FDB7E706F1080154E7022D7FF407AF711E2846FFF7D5
:2034400095FB72E701F028FF00287FF423AFFBE690070020800224431820094010ED00E01F
:20346000B801001000100940081009404010094020042243242208402C200940D80100109B
:2034800000400340800104430C4009400146014802F040B9900700200146014802F094B94B
:2034A0009007002010B5054802F02EF9BDE81040034B20211B6803201B6818479007002067
:2034C00084010010431C0ED010B5074B04461B684FF4C0421B68002198470022034B43EAD1
:2034E00084031A6010BD7047B4010010001A444238B504460D4602F01DFC01230549064A8B
:20350000A3400B6042F8245000B138BDBDE8384002F014BCE0200240940700200021064BBB
:2035200003F1800243F8041F9342FBD1034B10201B681B69184700BF90070020B0010010FB
:20354000F8B500240126084B084F1D681D6006FA04F32B42E0B203D057F8243003B19847C8
:203560000134202CF3D1F8BDE0200240940700200022412300B585B002A8CDE9022304F06B
:203580002DFA042002F068FC032810D00321042002F03AFC042002F05FFC0328FAD1009018
:2035A0001C234FF040520021044802F0E5FB02A804F06AFA05B05DF804FB00BF00A00C4006
:2035C0000022412300B583B06846CDE9002304F005FA042002F040FC022808D00221042068
:2035E00002F012FC042002F037FC0228FAD1684604F04AFA03B05DF804FB00BF002241235B
:2036000000B583B06846CDE9002304F0E7F9012002F022FC012803D00121032002F0F4FB14
:20362000684604F031FA03B05DF804FB0022412300B583B06846CDE9002304F0CFF90120E4
:2036400002F00AFC012803D0044B986B02F0B6FA684604F019FA03B05DF804FB480000106E
:2036600010B54123002482B06846CDE9004304F0B5F90320214602F0C7FB012002F0ECFB4A
:2036800018B1044B986B02F099FA684604F0FCF902B010BD4800001008B504F035FA30B15B
:2036A000044B5B88022B14BF0220012008BD022008BD00BF1408002030B583B004F024FAC4
:2036C00018B1134C6388022B08D001A9104804F023FA012805D0002003B030BD012003B02D
:2036E00030BDFFF7F1F90A4C00F1400504E0FFF7EBF9401B002809DA60880228F7D1A0F1E2
:203700000200B0FA80F0400903B030BD6088F6E71408002010B5012488B002A840F602029D
:20372000182104F05DFC114A9DF81830126803F0F80391880E4A6FF3C303ADF81A1002A851
:2037400001A98DF818308DF81640079204F0E4F9A04202D0002008B010BD02A804F028FA94
:20376000001BB0FA80F0400908B010BDE0040020B404002008B5FFF7CDFF012801D00020D1
:2037800008BDFFF799FFC0B208BD00BFF8B50E4D00200E4F2C680E4E06E02379022B06D0E6
:2037A00024682B68A34209D02379032BF5D13B782BB124682B680120A342F5D1F8BD3046F7
:2037C00001F0ECFE0120EBE71C0B0020F41600206C05002008B5B4290A46014628BFB4222B
:2037E000024806F0B1FE002008BD00BF2A0B002030B583B004F0EEFB044604F085F908B96F
:2038000003B030BD01A90A4804F086F90128F7D1FFF75AF900F1400504E0FFF755F9401BA6
:203820000028EDDA638803F44063002BF5D0E7E7010001040B280BD00C2801D00120704765
:20384000042A07D131B10B4B00201B680B607047082A01D0022070470029FBD0064A4B1EDC
:20386000073112F8010903F8010F8B42F9D10020704700BF9C0800204308002010B542F29C
:203880000343002484B001A902A8CDF80A40ADF80E40ADF8083004F03FF920B19DF90A308A
:2038A000803302D0204604B010BD9DF80C0000F00C00A0F10400B0FA80F0400904B010BD86
:2038C00030B583B004F020F918B1184C6388022B05D0012003B030BDFFF7D0FF18B104F066
:2038E00013F90028F8D101A9114804F015F9FFF7EBF800F1400507E06088022809D1FFF7EE
:20390000E3F8401B002803DA04F0FEF80028F3D1608842F202439842DBD042F20743C01A58
:20392000B0FA80F0400903B030BD00BF14080020010001040B2810B502D00124204610BD61
:20394000082A13D191B1114A01F1080313F8010D8B4202F8010BF9D104F0D6F818B10C4B1F
:203960005B88022B05D00024204610BD0224204610BDFFF7A5FF012814BF03240024FFF7DB
:203980009BFE012818BF0324D8E700BF3C0800201408002030B585B004F0B6F8F0B1114B90
:2039A0005B88022B1AD14FF00002002442F2034563F301028DF80C209DF80C0000F003038A
:2039C000022B0CD101A902A8CDF80A40ADF80E40ADF8085004F0A0F80028EDD1FF2005B044
:2039E00030BD00BF140800202DE97848044604F08BF820B1184B5B88022B02D00020BDE86D
:203A0000788802F097F905463CB1144A144B12681A609DB10120BDE87888104B4FF0000C81
:203A20001E6800230E4C16F1804022684CF10001994208BF904205D32660EAE702F07EF9E8
:203A40000120DCE7FFF740F8064A07491368086001331360F0E700BF1408002004300440E0
:203A6000A4080020A8080020A008002008B504F00DFB012806D004F047F818B1094B5B88F7
:203A8000022B01D0002008BD04F03EF818B1FFF7F5FE0028F6D1FFF77DFFFF28F2D0C0F36A
:203AA000801008BD1408002008B502E0FFF7E6FE18B104F029F80028F8D1FFF701FF04F043
:203AC00077F9FFF7CDFD00220C4B0D4819794280022908BF1A710B4B1A79022A04BF00221D
:203AE0001A71094B1A79022A04BF00221A71074B1A79022A04BF00221A7108BDDC0800206E
:203B0000140800206C090020FC0900208C0A002008B504F0BBFA012801D0FFF7C5FF0120BE
:203B200008BD00BFF8B504F0B1FA01282ED0FFF765FD03F0E9FF18B11D4B5B88022B25D025
:203B4000012588241B4A1C48577946791B491C4B65F3830765F38306577146714F795E798F
:203B600065F3830765F3830610600160C480D480CC804F710B601A60DC805E71FFF756FDB4
:203B800004F0B6F9A84203D00020F8BD0120F8BD0C4B1878003018BF012004F0C3F9FFF765
:203BA000B9FD0128F0D1BDE8F840FFF785BD00BF14080020DC0800206C090020FC09002097
:203BC0008C0A0020F416002030B585B0072800F2A980DFE800F0101F2A2D305A5F04524CD9
:203BE000217703F091FF10B16388022B79D00024204605B030BD012900F084800191002983
:203C00006BD104F043FA0128F1D0FFF74DFF01990C46EDE7A1F10B030F2B5ED8424CC9B232
:203C2000A37B8B42E3D0A173DBE73F4C6186D8E73D4C2186D5E731F007024ED13A4CC1F370
:203C40004005237E394861F30003DBB243F0020365F38203657E03F0870362F3C71362F320
:203C6000C7150278C1F380019142657623760170B7D1228B2E4B03A918465A8003F04CFF31
:203C8000002814BF00240324B2E731F0010324D1CCB2ADE701F115031A2B1ED86FF014035E
:203CA0000C24244A01E052F83430994230DD14F1FF34F8D203F028FF002898D010221D4BA9
:203CC00002A903EBC404A38803A8ADF80E30ADF80C20002403F020FF8AE70224204605B011
:203CE00030BDFFF7EDFD012814BF0324002404F00DF9012812D0FFF7DFFC01283FF478AF57
:203D0000032475E7FFF70EFF01283FF470AFF7E7084B094A03EBC4031360CBE70020FFF72E
:203D200063FEE8E7012463E714080020F41600209408002018AB0000E0040020002900F0E2
:203D4000A380F0B50C4685B0102800F29F80DFE800F00E1B20252A41444A5081879D9D8C8F
:203D600090940900052300200B6005B0F0BD03F0CBFE30B1524B5888A0F10200B0FA80F03A
:203D8000400920600020F0E74D4B00209B7B0B60EBE74B4B00205B8E0B60E6E7484B0020CE
:203DA0001B8E0B60E1E70023454A0B60137E03F001030B60127E520744BF43F002030B6088
:203DC000404B1B78002B5DD00B68002043F004030B60CAE700200860C7E73B4B00201B6825
:203DE0001B680B60C1E7364B002093F91C300B60BBE703F089FE00284AD0314B5B88022B5F
:203E000046D100274FF000030222002562F38303CDE9025542F203468DF80C300BE001A91E
:203E200002A8CDF80A50ADF80E50ADF8086003F073FE002837D09DF80C3003F00C03082B10
:203E4000EDD0002F34D19DF90A302360803319D103208AE71D4B00201B785BB20B6084E7EF
:203E60001B4B00201B780B607FE70B2300200B607BE71A2300200B6077E76FF01403002081
:203E80000B6072E7002070E70220704701206CE7FFF748FE012808BF0746B3D06FF07F03BD
:203EA0000320236061E780238DF80A30002FF5D004F0ECF80128C6D0FFF7F6FDC3E700BFD5
:203EC00014080020F4160020E0040020F3160020F216002070B588B0064603F015FE002850
:203EE00048D03A4B5B88022B44D10025FEF7ECFD6FF01F04241A07E0FFF7C0FC012843D167
:203F0000FEF7E2FDC44241D503F0FEFD0028F3D102A842F60142182104F062F800222C4B92
:203F20002C4CF6B28DF817602178069304929DF81430891A18BF012162F3030301208DF827
:203F4000143004F027F802A801A903F0E5FD30B3207801E0002836D0BDF80A3003F44063CE
:203F6000002BF7D0BDF80A40A4B2B4F5105418BF012416E0FFF7D6FD012803D001242046AB
:203F800008B070BD0546B1E70028C1D01DB104F07DF8012813D10224204608B070BD207853
:203FA0000124003018BF012004F008F8002DE6D004F06CF80128E2D0FFF776FDDFE7FFF785
:203FC00073FD0224E8E7FFF72FF9C1E7140800202A0B0020F416002010B50C46B42C22469C
:203FE000014628BFB422044806F0AEFA2046BDE81040FFF76FBF00BF2A0B002010B504F087
:2040000045F801281CD003F07FFD18B11B4B5B88022B1BD0FFF786FD012804460AD1FFF7F8
:20402000B9FCFF2822D104F031F8012809D0FFF73BFD06E004F02AF8012801D0FFF734FD47
:204040000124204610BDFFF719FC18B103F05CFD0028F8D1FFF79EFCFF28F1D000F003008C
:2040600010F1FF3418BF0124204610BD00F0030010F1FF3418BF0124D5E700BF1408002003
:204080002DE9F047594E80460F463568FEF71CFD574C241A03E0FEF717FDC44208D52B7912
:2040A000022BF8D0032B06D000242046BDE8F0872B79032BF8D1D6F8009099F80820032A82
:2040C00006D999F80850EDB2A5F10804BC420ADD0024D9F8003089F8084089F804403360AC
:2040E0002046BDE8F0874046224609F1090106F02BFAEB1C19F803303E4F5BB23B70043568
:2041000019F805203C4D02F03F0209EB0403D3F80D802A7003F0F8FC18B1384B5B88022B7D
:2041200060D0FFF7FFFC4FF0010903F0EDFC78B1324B5B88022B0BD10020FFF755FCB9F196
:20414000000F05D003F0A2FF012801D0FFF7ACFC2B4BB8F1404FD3F8009036D86FF4BF70A6
:204160004FF0FF3100224B46DFF8A4C0DCF800C0B0EB0C0961EBEC7A19EB08004AF10001A4
:2041800010EB020841EB03094FEA092143F60952002341EA18614FEA082006F04DF8194B24
:2041A000194A1B7810604BB93978042049B289B202F0E8FC2978032002F0E4FC0022336861
:2041C00019681A7231601A716FE7FEF77DFC0F4B1B68C3F17E4303F57203C34248BF09F12D
:2041E000FF39BBE74FF000099FE700BF240B0020FAFEFFFFF3160020F21600201408002086
:20420000A8080020F41600209C080020A0080020A015002010B503F077FC18B1144B5B880D
:20422000022B1DD0FFF77EFC012811D10020FFF7DBFB044603F02AFF012816D144B1BDE8ED
:20424000104000230B4A4FF487310B4800F030BF0023BDE81040074A8021074800F028BF39
:204260000020FFF7C1FB0446E8E7FFF71DFCE5E71408002015420000AC0800202DE9F047C4
:204280000025354F3548FFF701F903F00FFE38469022294606F0CEF990222946304806F01D
:2042A000C9F9902229462F482F4C06F0C3F9902229462E4806F0BEF92D4E2E4B29467E2230
:2042C000A01C4FF0070A4FF002091F60C6E9007506F0B0F9A623FF2101224FF00B0E4FF0A3
:2042E000B90C42F601086F2742F202002661224E84F8199084F818A066612377268B1F4B20
:20430000A4F8008084F80EE084F80FC0E776A1765E801971627384F837201880FFF702FCBC
:20432000012803D02C462046BDE8F0870446144803F064FE2046FFF757FB2B46114A4FF4D5
:204340008731114800F0B4FE2946104801F06CF82046BDE8F08700BFDC080020A004002085
:204360006C090020FC090020140800208C0A00201C0B0020240B0020CC080020940800204B
:2043800010AB000015420000AC0800206C05002008B500F08BF880B208BD00BF00F014B903
:2043A00038B50C4D04202B685B6998472B6804205B6B984701280446F8D12B6840F20140BF
:2043C000DB699847044B054A1C6013689B07FCD538BD00BFB80100102820086028200840F5
:2043E000034B1B68002B14BF01200220704700BFE00B0020F8B503880446002B2ED0B3F5D7
:20440000847F05D1184B1B788B4205D00120F8BD002323800320F8BD144D2B6873B1144B40
:20442000144A1B6812685B68022017460026984730182B6847F1000198472E600E4B40F2CE
:2044400001401B689B6A984701210C4B0C4A196013689B07FCD50B48FFF71EF84FF48473E5
:2044600023800120F8BD00BF83050020E00B0020CC01001004800240B80100102820086035
:2044800028200840E404002008B5064B04201B685B6B9847012809BF034B00201868C0F398
:2044A000400008BDB80100103C2008402DE9F041284B1B68D3B128480023024612F8011BC8
:2044C00049B90133042BF9D100274FF0000838464146BDE8F0810021204AC15402EBC303D1
:2044E000D3E9007838464146BDE8F081FFF7CCFF00282BD01A4A1B4B12681A420ED11A4AA6
:204500000121134611601A68002AFCD110464FF4807102F09BF90122144B1A6001F00AFC33
:2045200006460F4A1368DB07FCD5114B114A1B6812685B680220154600249847271845F13C
:204540000008002EC3D101F0F9FBC0E7FFF728FFD0E700BFE00B0020E40B002090050020A3
:204560000880024001000080F09F0240A8025042CC0100100480024038B500240D4D0E4A7D
:204580002C6013680D4923F00103096813604B6931209847224620464FF4807102F056F99C
:2045A0000122074B2A6019782246BDE83840054800F0D4BFA80250420C800240B00100104B
:2045C00083050020F804002010B5074C2378802B00D010BD00F020FF002120700348BDE86C
:2045E000104000F021BF00BF83050020F80400200AB90020704708B508461146FEF7A6FB86
:20460000002008BD0FB400B583B004AB53F8041B04481A46019300F027F803B05DF804EBAB
:2046200004B0704708050020102970B50C46054613D90C4E01E0102C08D92B681022314667
:2046400068689847103C0028F5D070BD2246D5E90030BDE87040034918470029F6D10846B1
:2046600070BD00BF9CAB00002DE9F04F8246894690464FF0000B8FB099F80030002B00F0E0
:20468000D980252B08BF4D461BD04C4603E0252B00F0D4802C466378651C002BF7D14D45D0
:2046A00000F0C880DAE90030A5EB0906494632469847002840F04F816378B344002B00F035
:2046C000B9806A7805F10109002A00F0B3800021A2F12003102B1BD8DFE803F0171A1A1454
:2046E0001A1A1A1A1A1A1A111A0E1A1A090041F0100119F8012FEBE741F00101F9E741F0F5
:204700000601F6E741F00801F3E741F00201F0E7A2F13103082B40F295802A2A00F0C180D0
:2047200000242E2A00F09D804FF0FF336C2A00F0A580682A00F0AB80782A00F29B81DFE8B0
:2047400012F079009901990199019901990199019901990199019901990199019901990172
:20476000990199019901990199019901990199019901990199019901990199019901990199
:204780009901990199019901990199016F01990199019901990199019901990199019901A3
:2047A000990199019901990199019901990199019901990199019901990199019901990159
:2047C00099019901680199019901990161015A015301990199019901990199019901990127
:2047E0009901990199019901990199019901990199014C0199019901990199019901990166
:2048000099019901450199013E01370130010F01DB00990137019901990199019901D200E5
:2048200092018B0199019901840199017D0199019901760158460FB0BDE8F08F4D457FF457
:2048400031AF3EE7002404EB840402EB440419F8012F303CA2F13003092BF4D92E2A7FF444
:2048600063AF99F8012009F10100A2F13003092B24D92A2A00F0AF81814655E799F8012059
:204880006C2A29D009F1010941F0600154E799F80120682A00F0988109F1010941F04001F5
:2048A0004AE7D8F8004099F80120002C08F10408B8BF41F0010109F1010932E7002303EBFC
:2048C000830302EB430310F8012F303BA2F13005092DF4D9814629E799F8022041F0800175
:2048E00009F1020928E709F10109D8F8003008F10408C3F800B0BFE601F4E06242F40072AC
:2049000041F48137B2F5806F09F1010933D040F2B580B2F5C06F00F04A81B2F5E06FE4D06B
:20492000B2F5A06F7FF4A8AE012C38BF0124D8F80030013C8DF82030FB0708F1040840F165
:204940000883DAF80030012208A9DAF804009847002800F0F8814FF0FF300FB0BDE8F08F5F
:2049600001F4E06242F40072B2F5806F41F4007709F10109CBD1D8F8006008F10408002E13
:2049800000F0DE8135782DB1354615F8012F002AFBD1AD1B002BC0F2A8809D4228BF1D4699
:2049A000A3E001F4E06242F4007241F40247A9E701F4E06242F4807241F42457A2E701F4FA
:2049C000E06242F4A06241F4A0679BE701F4E06242F4007241F4C13794E701F4E06242F4AB
:2049E000807241F4B2478DE701F4E06242F4007241F4A13786E701F4E06242F4007241F4B6
:204A000084477FE701F4E06242F4007241F4424778E701F4E06242F4007241F4E13771E7E5
:204A200001F4E06242F4C06241F4C0676AE701F4E06242F4807241F4C85763E701F4E06206
:204A400042F4807241F410675CE701F4E06242F4806241F4806755E701F4E06242F4407279
:204A600041F440774EE701F4E06242F4807241F4885747E70F4601F4E06243E7B2F5807F18
:204A80004ED0B2F5407F7FF4F7ADBC4BD8F8001017F4804FBA4E08F1040818BF1E460A4622
:204AA00000230DF1330E002900F09E807146100940EA03704FEA131C02F00F056346024691
:204AC000705D01F8010D52EA0300F0D1BEEB010500F08B80033578203022232301F8010CEA
:204AE00001F8022C01F8033CCE1EAC428CBF641B0024FA0740F1F0813146DAF800302A4603
:204B0000DAF80400984700287FF425AF21465046AB44FFF789FD00287FF41DAFA344ABE52B
:204B2000002BB4BF012327F0100717F400520393069207F0E0035ED0402B00F0F18100F233
:204B40000D81002B00F0B681202B40F0EF8198F9002008F10408D317002A73F10001C0F2A9
:204B6000B381CDE904230023079307F4C053B3F5805F59D10DF136030193DDE9042313439A
:204B800000F0BF81DDE90423019DD00840EA4370DE0802F0070133460246303105F8011D88
:204BA00052EA0301F1D1019B5B1B019348E0DAF8003001227349DAF80400984700287FF4F4
:204BC000CAAE0BF1010B57E599F8022041F0200109F10209B0E599F80220D8F8003009F1CD
:204BE000020908F10408A1E571463023042501F8013C01396FE7402B00F09B8100F2CE806F
:204C0000002B00F04C81202B40F083810023069A08F10408079218F8042CCDE9042307F4B4
:204C2000C053B3F5805FA5D0B3F5C05F00F00781B3F5006F00F0DB8000230DF136050193D4
:204C400041F60803019903983B40814241F20802C0F0B980934200F01781002203910292D2
:204C600041F60802934240F0AB80DDE90423134300F0A680444A17F4804F444B08BF134653
:204C800002260493069B7BB1079B002B40F0F88007F00603022B00F038813D4A062B049BE6
:204CA00004BF134601260493039B33449C428CBFE41A002417F00103039306D1F90640F112
:204CC000E680029A22441C460292DAE900303EB104993246984700287FF43DAEDAE9003027
:204CE000029F019A102F934440F22D81102229499847103F00287FF42EAEDAE90030102F07
:204D0000F4D83A462349984700287FF424AEDAE90030019A2946B344984700287FF41BAE58
:204D2000029B5B449B46039B002B3FF4F7AE21465046FFF779FC00287FF40DAEA3449BE491
:204D4000154E062526E6214650460BF1010BFFF76BFC00287FF4FFADA3448DE4602B00F03D
:204D6000A980802B40F0E28008F1070323F0070303F10808D3E90023EEE600BFBCAB0000D0
:204D8000D0AB000000AC0000E8AB0000E4AB0000F4AB0000ACAB0000F8AB0000602B7ED058
:204DA000802B40F0B68008F1070323F0070303F10808D3E90023CDE90423069B07932EE7B2
:204DC000002604965EE7039901989342A1EB000102917FF445AF00290B4608BF0123029343
:204DE0000026DDE901321344CDE903364AE70DF13605DDE9042352EA0301019500F0818030
:204E0000CDF808B01646BB461F46304639460A22002305F011FA30323046394605F8012D8D
:204E200000230A2205F008FA06460F4656EA0703EBD15F46DDE9013B5B1B019300E7504B52
:204E400017F4804F4F4E0DF1360518BF1E46DDE9042352EA0301019553D0110941EA0371C8
:204E60004FEA131C02F00F0063460A46315C05F8011D52EA0301F0D1019B5B1B0193DFE6BC
:204E8000414B012604930FE701230293A8E721465046FFF7C9FB00283FF417AF5BE5D8F8A2
:204EA000003000221946069B08F10408CDE904120793B4E6D8F8002008F10408D317002A92
:204EC00073F10001BFF64DAE524263EB4303CDE9042301230793A2E621465046FFF7A4FBE0
:204EE00000287FF438AD3146DAF800302A46DAF80400984700287FF42EADAB44A344FFF752
:204F0000BBBB0023019D01939AE6204B01260493CAE60023002207930023CDE904237EE62A
:204F2000B8F9002008F10408D31715E60022002317E60023069A08F10408079238F8042CB3
:204F4000CDE904236BE6029A002A3FF4E2AE1746D7E621465046FFF767FB00287FF4FBACE9
:204F60000122DAF8003008A9DAF804009344984700287FF4F0ACA344A344FFF77DBB00BFDD
:204F8000BCAB0000D0AB0000ECAB0000F0AB000010B50446006830B1002100F045FA54F809
:204FA000040F0028F8D110BDF0B5038883B005465BB14A2B04D188291BD0012003B0F0BDFF
:204FC000002303202B8003B0F0BD194800F0A0FB044630B1A168201D00F04EF92468002C34
:204FE000F8D10122134B1A704A2301202B8003B0F0BD0F48019200F08BFB04460028F3D0AF
:20500000019A031D9A4205D02468231D002CEBD09A42F9D1084E2146054800F0D5FBD4E944
:205020000523376832600BB1E06998473760DBE7E80B0020F5160020740D002010B5002412
:20504000054B06481C7000F05FFB2146BDE81040034800F0E9B900BFF5160020E80B0020A6
:205060001005002070B504460D48049D0078C4E90623656130B9A1600A482146BDE870408A
:2050800000F048BB084D094B2E68201D2B6000F0F3F82E602146BDE87040024800F03ABBC2
:2050A000F5160020E80B0020740D00201005002010B5044C82B024680094FFF7D3FF02B0FB
:2050C00010BD00BF740D002010B50A4B04461B783BB9C0E903332146BDE81040064800F03F
:2050E00073BB043000F0EAF82146BDE81040024800F06ABBF5160020E80B0020704700BF0D
:2051000010B5FDF7A3FC0B4B1B689A68D3E900142144091A4AB1D2E9003423441B1A926884
:20512000994228BF1946002AF5D1034B0844186010BD00BFF00B0020EC0B00202DE9F8433D
:205140000388054673B3592B27D1872930D082291ED14FF000092D4FDFF8B8803C68BCB1A9
:20516000002603E0A368264693B11C46204600F059FA0028F6D022468821E06800F0EEF942
:2051800030B3404600F00AFAA3682646002BECD1592301202B80BDE8F88300232B800320FA
:2051A000BDE8F883194A0120136059232B80F2E7164F39680029EBD0CB689A4203D014E018
:2051C000CB68934210D189680029F9D13960DFE7E060A368BEB1B3603B68C4F808907BB1B3
:2051E000FFF78EFF3C68BAE739608B68002BCFD0D3E90204944214BF194688600346F5E7BA
:20520000034A1360C4E73B60E7E700BFF00B0020EC0B00202005002010B50446104800F02D
:20522000BDF91049E3680A684BB142B194420FD0134601E09C420BD09B68002BFAD10A4BBD
:20524000A2601B680C60E360BDE81040FFF758BF054B1B68E360BDE81040FFF751BF00BF48
:2052600020050020F00B0020740D0020014800F095B900BF2005002010B5044600F0CAF9E0
:205280002046BDE81040FFF7C7BF00BFC068B0FA80F04009704700BF024B1868003018BFA3
:2052A00001207047F00B0020024B186808B1024B18687047F00B0020EC0B002010B5114B9E
:2052C00004461A68824213D072B19368984208BF134605D043B19A68A24201D01346F9E78A
:2052E000A2689A60FFF70CFF0023C4E9023310BD82681A60002AF5D1034B1A600023C4E9EB
:20530000023310BDF00B0020EC0B00202DE9F843234F3D68854208D0002D38D02B4601E0CB
:20532000002B34D01B689842FAD180B31D4E837B89460446D6F80080D3B10023837365B160
:20534000AC4207D0AB7BDB0704D522468721284600F02AF82D68002DF2D1A3683BB14C450A
:2053600005D034600022832104F10C0098473D68A54212D04DB12B68A3420AD02BB11A6802
:20538000A24207D01346002BF9D1C6F80080BDE8F8832B4622681A60F7E72B683B60F4E74A
:2053A000780D0020740D002070B586687EB1044602200A4BA0731C6004F10C000D46B047CA
:2053C0000238012804D9832D02D00123A37370BD21462046BDE87040FFF798BF740D002094
:2053E000002238B50A490B4B0C681A707CB1012501E024685CB1E37B002BFAD0E58120460B
:2054000000228221FFF7D0FF2468002CF3D138BD780D0020F9160020024B1878421C1A70F8
:20542000704700BFF716002070B50F4D2C68844206D034B1234600E01BB11B689842FBD1F5
:2054400070BD0028FCD003460A46012000211C60064C987326689981184681212B60FFF74E
:20546000A3FF266070BD00BF780D0020740D002030B48A250023064A064815700649074A59
:20548000074C03700B601360237030BC704700BFF7160020F8160020780D0020740D0020D2
:2054A000F61600202DE9F041224D2B780BB1FFF797FF214E3378BBB12048214F0278013B0B
:2054C00002EB4201890001327C1802F01F020270A068DBB233707F5CD4F8048040B1812FC3
:2054E0001DD0827BD2071CD428781844BDE8F081144A14682CB9F7E7A37BD90709D42468E3
:205500009CB12B78002BF7D0FFF76AFFA37BD907F5D5424639462046FFF746FFEFE70123E0
:20552000837342463946FFF73FFF337828781844BDE8F081F9160020F8160020F6160020F4
:20554000F40B0020780D0020024A034B10781B7818447047F8160020F916002070B40C4DE5
:205560002C78202C11D00B4B0B4E1B78234403F01F0303EB43039B0001342C70F418C4E943
:205580000120F154002070BC7047012070BC7047F8160020F6160020F40B002018B1837B5E
:2055A000013B012B00D970470123024AC3731370704700BFF9160020FDF780BA38B50A4CB4
:2055C000049D22682AB1C0E9013501602060002038BD0246C0E90135016008462260FDF7A4
:2055E0006FFA002038BD00BF7C0D002010B5084C206858B1D0E90131002222609847236822
:2056000023B1BDE810401868FDF75ABA10BD00BF7C0D002010B541600446FDF717FA2060CF
:2056200010BD00BF10B50446FDF710FAD4E90032C3F10103184482422CBF0020012010BD11
:20564000F8B504880746672C0BD0792C04D0D4B100233B800320F8BD852936D11C4E002360
:2056600033601C4D1A4C05E00A282646236811D07E2B25DD284600F02BF9431CF4D16723FE
:205680003B800120F8BDFFF7C7FE134A104B10701C60E6E70025114A0F49D5540978013387
:2056A00028462360FFF75AFF0D4B2A4618688521FFF754FF0028D2D179233B800120F8BD7B
:2056C00006495A1CC8542260D4E70120F8BD00BF000E0020040E002059170020800D00207A
:2056E000740D002008B505490548802200F0E8F8BDE8084000210348FFF796BE0C0E002062
:20570000040E00203005002000230360704700BF0068704710B404685CB1A1421CD0236850
:205720000BB906E01346994212D01A681C46002AF8D100230B6002680AB906E01A46136856
:20574000002BFBD1116010BC7047016010BC70470B6814B12360ECE70B680360E9E700BF87
:2057600030B4046864B1A14217D0236825460BB906E01346994207D01A681D46002AF8D177
:205780000C60016030BC70470B682B6000230B6004680C60016030BC70470B680360F5E77F
:2057A000016871B10B6813B907E0194613461A68002AFAD10A601846704703600B46184678
:2057C00070470B46F7E700BF10B404685CB18C4211D023680BB906E013468B421A6804D087
:2057E0001C46002AF8D110BC704734B1226000221A6010BC7047234622680260F7E700BF59
:2058000000B10068704700BF10B5044642880021406804F00FFF23886288A06802FB03F2C6
:20582000BDE81040002104F005BF00BF30B44588BDB141680B7863B100234A1C03E0147884
:20584000114601322CB10133AB42F8D1002030BC704701220A700588806803FB050030BC33
:2058600070472846F3E700BF70B4448882685CB18A4206460BD00023058801E0914207D055
:205880000133A3422A44F9D1FF2070BC704700237268D05C0028F8D00138D054726870BC39
:2058A000D05C704783688B4208D84288008800FB023081422CBF0020012070470020704771
:2058C0000023013A0160027143718371704700BF10B4817942790479521A224207D0034692
:2058E0004A1C00682240405C9A7110BC70474FF0FF30FAE7F8B506460B480D461746FFF70D
:2059000007FF50B10446A3680BB1284698472046FFF776FF04460028F5D13A4629463046B4
:20592000BDE8F84002F0D2BB8C0E002038B502F0D5FC05460A48FFF7EBFE48B10446636817
:2059400003B198472046FFF75BFF04460028F6D125B12846BDE8384002F0B2BB38BD00BF51
:205960008C0E002010B501F037F901F09FF802F0B3FB02F0B1FCBDE810404FF4E1234FF441
:20598000F0528021022002F055BC00BF10B5044602F0B2FC00B910BD00F0A4FF034B2146C3
:2059A0009B6803489847012010BD00BFC4AC0000F558000038B504460D2001F0EBF848B917
:2059C00094F84E3094F84F200133DBB29A4284F84E3000D938BD84F84D00204600F09EF8A8
:2059E000A36C9D683DB1204600F094F894F84E2001462046A847002294F84C3084F84E2019
:205A0000013303F0030384F84C3038BD2DE9F04104460D200D4601F0BDF801282BD00D2064
:205A200001F0B8F808B1BDE8F0810E2001F0B2F8074601F0DFF8064698B101F037F8012141
:205A40000D2001F09FF839460E2001F09BF82946204600F061F8304601F012F9304601F069
:205A6000F9F8A36C1B68002BDDD0FAB229462046BDE8F04118470E2001F08CF894F84C306A
:205A80009842D0D10022013303F0030384F84C3084F84D20204600F041F8A36C5D68002DCB
:205AA000C1D0204600F036F894F84E2001462B462046BDE8F041184770B50E461546074A5F
:205AC000044600F01DF83046054902F051FC0023A564A4F84C3084F84E3070BD50AC00000D
:205AE00044AC000000F026B8036C1B6803B11847704700BF036C5B6803B11847704700BFB2
:205B000038B515460446024A00F03AF8256438BD58AC00004430704700F046B810B50446DB
:205B20001C30FFF7D1FAE06B18B101F093F80023E36310BD10B5044600F034F82046BDE85C
:205B40001040FFF7EBBF00BF83695B6803B11847704700BF70B504461B200D4601F02CF84C
:205B6000064900F093FE38B1A3691B6823B129462046BDE87040184770BD00BF1817002045
:205B800070B5054616460C46044A02F083FBAE612046BDE87040024902F0EABB68AC000069
:205BA00060AC000002F088BB10B504461B2000F0F7FF2046BDE8104002F080BB70B506467B
:205BC00000F0B8F80546064C2368002BFCD0B0470123236005B170BDBDE8704000F0AEB8DA
:205BE00000800C4010B4064A064C1368206811688B42FAD1000C40EA034010BC704700BFA4
:205C0000082009400C200940024B186800F00E00704700BFD42108404BF69A12104B186858
:205C2000C0F30F30904211D04BF6BE1398420BD04BF64133984210D04BF62033984214BF48
:205C40004FF0FF3002207047012070471B681B0F0B2B0CBF0420002070470320704700BFE3
:205C60001813005010B5124B1968C1F30334FFF7D3FFD0B9012341F21222A340134208D12E
:205C80001A040CD413F0040F14BF02204FF0FF3010BD11F4000F0CBF0420072010BD11F0C8
:205CA000807F0CBF0520062010BD4FF0FF3010BD9412005010B5184B184A1C681168240F17
:205CC000C9B2802928BF0021FFF7A6FF042819D8DFE800F00D07030304009CB90A3148B281
:205CE00010BD6CB1022C0DD1143148B210BD631E072B07D8DFE803F004060C0606060E0917
:205D00000A2010BD4FF0FF3010BD163148B210BD142010BD152010BD18130050A0100050C5
:205D200008B5FFF779FF00B1FEE7FFF7C3FF1528FADD08BDEFF3108072B67047EFF310804E
:205D400062B6704701387FF4FDAF7047F8B506460D461746FFF7EEFF064C2368002BFCD005
:205D600001237751236000B1F8BDBDE8F840FFF7E5BF00BF00800C4070B50F2BBDF81050D8
:205D800088BF103B00EB410188BF120C05FA03F594BF01F5007601F5017645EA0245FFF750
:205DA000C9FF064C2368002BFCD001233560236000B170BDBDE87040FFF7C0BF00800C4097
:205DC0000F2B2DE9F0411E46174600EB010804D9A3F1100608F10208170CFFF7ABFF094DEA
:205DE0002C68002CFCD00123B8F800402B60A4B208B9FFF7A3FF04EA0700304180B2BDE88C
:205E0000F08100BF00800C4030B50D46C10783B0044616D4A2070BD4630707D5ADB200955D
:205E200002230C2200210B48FFF7A6FF03B030BDABB200930222012300210648FFF79CFF28
:205E4000EAE70023AAB20092194601220148FFF793FFDFE700A00C4008B5042807BF1D236C
:205E60004FF0C0421C234FF0805234210148FFF7A7FF08BD00A00C4001280AD018B10122B7
:205E8000074B1A607047074A136823F0050313607047044A136843F005031360704700BF81
:205EA0008001044300000940012138B505462A4B2A4A19601368002BFCD0C021284A294BDC
:205EC00011601B689B073FD4274BA2F57F321B68A2F5D572C3F3034343F0F0031370002138
:205EE000224A234B11601C68204600F0BDF82146284600F021FA40F20E221E4B1B689BB24D
:205F0000934212D81C4A13681268C3F30363C2F30342EBB9911F012991BF7022023202F0CB
:205F20000F021201154913430B70204600F0D6F8134B02201B68DB689847402001220849F1
:205F4000104B08601A6038BD72220F4B1A70C6E7013BDBB2DEE700BF101009409402224339
:205F600000600C40B03F0050AC3F005040100940B43F005014130050BC12005002600840E0
:205F8000A0010010940460425662084038B51D4B00251C68631C08BF0024FFF7C1FE0123D5
:205FA00019481A491A4A05600B60136000F08CFA184B1B6823B1184B20461B68FFF774FF91
:205FC0000022164B16491A600B68164A23F07F6323F4702343F09C7343F480330B601368E1
:205FE000C3F30133012B08D1136823F0407323F4403343F40031116013600B4A1368002BA0
:20600000FCD138BD1C130050840460425C600C400822044380012843000120438C21084057
:2060200048200340040009400C006842064B1868C20C830D02F4407203F01C031343C0F3C0
:2060400081501843704700BF98130050044B05481B681A0302F47C1310401843704700BFC1
:206060009813005000F0C0FF6FF00902154B16491B68C3F30463152B88BF203B03EB20734A
:2060800001339342B8BF1346152BA8BF152303F01F030E4A43F4F8530B8013680C4913F0FB
:2060A00002030ABF0B4A40F0406013606FEAD0636FEA9060084A03F0010300F001000B6000
:2060C00010607047B81200506E620840000009400000204394042A430800204338B5C0F3AB
:2060E0008143012B2CD0022B2ED1524B1B681B0702D44022504B1A604FF400714F4A504B11
:2061000011601B68C0F38150C3F3C14343F03003012882F8883037D020D3022819D103215A
:206120000420FFF771FE47F61800464B464C1B68464903F03F03464A23700880136838BDFC
:206140003F4B1B689A034BD54FF00042414B1A60CBE702210420FFF757FEE4E70121042099
:2061600043F2BD75FFF750FE862401213A4A3B483B4B15603B4A046019601368002BFCD0D2
:206180000022374B1A60CEE7FFF766FE044601460420FFF739FE0420FFF75EFEA042FAD1CD
:2061A0000121314B2C4A18682C4C85B22C4B1560C0F307452B4A256019601368002BFCD0CC
:2061C00000212A4B264A1B6811601B684FF06022000E072198474FF480621E4B1A609EE7DF
:2061E0004FF480411B4A224D11602C68C3F3033224F08F04590A224301F080010A431D4C40
:206200002A602168C3F3032221F00F010A431A4922600A6803F0800422F0E702224303F001
:206220006004224303F00604224303F0010313430B605AE7B03F005068A00C4080A00C403B
:206240008C1300506C1300500BB00C4070B00C402C20094040A00C403C600C4040600C4078
:2062600044600C4084088C43A83F0050B40100100C6008400B6008400A600840174B8203D7
:206280001B68C3F38361C3F38F230DD440F30722002A0CDA5B0805D149080ABF01234FF670
:2062A000FF7319460132F5D143EA01407047FBD05B0043F00103B3F5803F4FEA410007D3D7
:2062C00040F001010F2986BF4FF6FF730F210123013AEDD143EA0140704700BF5013005074
:2062E00030B4124A124B11681B68C1F30354DB07C1F303420BD40F4B1D6845F3032345F3CB
:20630000033523442A4483F3040482F304021304212843EA04538AB243EA020384BF01F0F1
:2063200080410B43184630BC704700BF78130050B03F0050AC3F005030B5044683B0084689
:20634000FFF79CFF182102465248FFF7FFFC524A002311681268C1F38701120202F44072F6
:206360000A4300922C2140F2FF324A48FFF704FD4A4B1C211A684748C2F30D02FFF7E6FC86
:20638000474B14211A68434802F0FC32FFF7DEFC444B10211A683F4822F07F4222F4403215
:2063A000FFF7D4FC2046FFF79BFF0C2102463948FFF7CCFC212C20D8222111223A4B1F2CE2
:2063C00019701A704DD80022282132486025FFF7BDFC80244FF47C41344A3548354B1570C8
:2063E000354A0470198008212A48FFF7AFFC4FF48002324B1A6003B030BD314C2A4A2368FD
:20640000C3F300735B0043F0200313702368C3F3407343F010031370FFF708FE28210246D5
:206420001C48FFF793FC274B204A1B682049C3F301535B0043F0600313702368C3F3C063C9
:20644000DB0063F07F03DBB20B702368C3F345539B0043F47C43A2F89030FFF7F7FD02468E
:20646000C1E7FFF7E3FD282102460A48FFF76EFC80244FF47C41134B0C4D1B680C48C3F373
:2064800001535B000B4A43F060032B7004701180E3E700BF00A00C40501300507C130050BB
:2064A000741300507013005049A10C404CA10C4041A10C40DCA10C4000803F4040A00C40A1
:2064C0008C13005098130050164A1368002BFCD11549164A0B68126823F00053520723F082
:2064E000070319D410B4124A43F00050146840F00400A4070DD043F0005343F007030B609C
:20650000136803F00303032BFAD1074B186010BC7047086010BC704743F0005343F0050315
:206520000B6070470C00684204400340B03F0050004003407D4B1B689B0706D508207C4985
:206540007C4B7D4A88711A6070472DE9F04F83B0054601F019FF794B1B681A179F0202F19B
:20656000010208D4C0F13E01C9100829A8BF08218A42B8BF0A466FF009067149714F0C68C3
:206580007149C4F304640968152C88BF203CC1F304412244152988BF2039B242B8BF3246AD
:2065A000152AA8BF152202F01F0444F4F854674E3C80366816F0030418BF0124760748BFC9
:2065C00044F002040DB144F00404594E96F90750451B042D24DCB579A54221D1B2885C4983
:2065E0001E2A09681346316040F28180B2F5007F28BF0022C0F093805B08B3F5007F02F156
:206600000102F9D253490F3B1B09114341EAC30300214848504A0360116003B0BDE8F08F67
:20662000B0F10F0504F0040904F0020804F0010E2CD405EB05154FEA252BBBF1060F0195B9
:2066400060D9DFF81CA14FF4E06B5746DFF814C1DCF800C03F68A7EB0C075FFA87FCB9F130
:20666000000F02D0C7F30725AC44B8F1000F02D0C7F30745AC44019DA5EB0B05BEF1000FE7
:2066800039D105FB0CF580352D0A02E00025DFF8D8A0DAF800C05FFA8CF7B9F1000F02D0B4
:2066A000CCF307294F44B8F1000F02D0CCF307484744BEF1000F01D007EB1C678A1A012A62
:2066C000B8BF0122342101FB02F1DAB202FB01F23D44B2FBF5F24FF6FF739A4228BF1A4671
:2066E00000F3070092B2F071B471B28077E71F221A4BB2808CE70CEB176705FB07F58035D5
:206700002D0AC6E70BF10107DFF85CA0BF00A7F1040CD44457444FEA0B2BE24698E7A2F1FB
:206720000F030C4A1B0942EAC30371E700000940900E002030100940FDFDA400B43F005012
:20674000B81200506E6208403C110050242208400820094000E7A4803410094008E7A480C0
:20676000B8130050B41300509C13005038B5154B1D68ACB204B938BD01F006FE124991F92C
:206780000730834205DD6FF07F039842B8BF1846C8718888A04213D80C4B0D681B68221AEA
:2067A00002335B1B1F2B28BF1F234FF6FF755B0822FA03F31C18AC4228BF2C468C8038BD11
:2067C0008D8038BD34100940900E002008200940194B1B6813B3194A126802F04061B1F13C
:2067E000406F1BD016490868800717D415480068800713D410B414480C68006814F0050F77
:20680000C0F3035000F11C004FEA001007D0834202D224F005040C6010BC70477047834224
:20682000FAD9110158BF44F001045301044B58BF44F004041C60EFE728500940B43F0050D7
:2068400000000940B03F0050AC3F005030B44FF6FF350A4C12022368C0F3871002F4706211
:20686000090A1D400904024305480A4323F48063294323602160026030BC70471480024077
:20688000188002400B880380704700BF02780B789A4203D0012080F00100704742784B7820
:2068A0009A42F7D1002080F001007047084B10B51B689847074B5B689847074B5B6898478A
:2068C000064B5B689847BDE81040054B5B681847D8AA000098AC0000C4AC000074AC000008
:2068E00030AC000070B40D4E3188A1B10C4B1D887DB100231A460B480B4C00780144C9B2A3
:20690000214404440133885C1BB2AB42A0541A46F8DB0023338070BC704700BFE61600203D
